{
  "contractName": "bet",
  "abi": [
    {
      "inputs": [],
      "stateMutability": "payable",
      "type": "constructor",
      "payable": true
    },
    {
      "anonymous": false,
      "inputs": [
        {
          "indexed": false,
          "internalType": "address",
          "name": "sender",
          "type": "address"
        },
        {
          "indexed": false,
          "internalType": "uint256",
          "name": "amount",
          "type": "uint256"
        }
      ],
      "name": "Deposit",
      "type": "event"
    },
    {
      "anonymous": false,
      "inputs": [
        {
          "indexed": false,
          "internalType": "address",
          "name": "addy",
          "type": "address"
        },
        {
          "indexed": false,
          "internalType": "uint256",
          "name": "amount",
          "type": "uint256"
        },
        {
          "components": [
            {
              "internalType": "string",
              "name": "name",
              "type": "string"
            },
            {
              "internalType": "uint256",
              "name": "totalBetAmount",
              "type": "uint256"
            }
          ],
          "indexed": false,
          "internalType": "struct bet.Team",
          "name": "teamBet",
          "type": "tuple"
        }
      ],
      "name": "NewBet",
      "type": "event"
    },
    {
      "anonymous": false,
      "inputs": [
        {
          "indexed": true,
          "internalType": "address",
          "name": "previousOwner",
          "type": "address"
        },
        {
          "indexed": true,
          "internalType": "address",
          "name": "newOwner",
          "type": "address"
        }
      ],
      "name": "OwnershipTransferred",
      "type": "event"
    },
    {
      "anonymous": false,
      "inputs": [
        {
          "indexed": false,
          "internalType": "address",
          "name": "sender",
          "type": "address"
        },
        {
          "indexed": false,
          "internalType": "address",
          "name": "receiver",
          "type": "address"
        },
        {
          "indexed": false,
          "internalType": "uint256",
          "name": "amount",
          "type": "uint256"
        }
      ],
      "name": "Transfer",
      "type": "event"
    },
    {
      "anonymous": false,
      "inputs": [
        {
          "indexed": false,
          "internalType": "address",
          "name": "receiver",
          "type": "address"
        },
        {
          "indexed": false,
          "internalType": "uint256",
          "name": "amount",
          "type": "uint256"
        }
      ],
      "name": "Withdrawal",
      "type": "event"
    },
    {
      "inputs": [
        {
          "internalType": "address",
          "name": "",
          "type": "address"
        }
      ],
      "name": "balances",
      "outputs": [
        {
          "internalType": "uint256",
          "name": "",
          "type": "uint256"
        }
      ],
      "stateMutability": "view",
      "type": "function",
      "constant": true
    },
    {
      "inputs": [
        {
          "internalType": "uint256",
          "name": "",
          "type": "uint256"
        }
      ],
      "name": "bets",
      "outputs": [
        {
          "internalType": "string",
          "name": "name",
          "type": "string"
        },
        {
          "internalType": "address",
          "name": "addy",
          "type": "address"
        },
        {
          "internalType": "uint256",
          "name": "amount",
          "type": "uint256"
        },
        {
          "components": [
            {
              "internalType": "string",
              "name": "name",
              "type": "string"
            },
            {
              "internalType": "uint256",
              "name": "totalBetAmount",
              "type": "uint256"
            }
          ],
          "internalType": "struct bet.Team",
          "name": "teamBet",
          "type": "tuple"
        }
      ],
      "stateMutability": "view",
      "type": "function",
      "constant": true
    },
    {
      "inputs": [],
      "name": "deposit",
      "outputs": [],
      "stateMutability": "payable",
      "type": "function",
      "payable": true
    },
    {
      "inputs": [
        {
          "internalType": "uint256",
          "name": "val",
          "type": "uint256"
        }
      ],
      "name": "depositBro",
      "outputs": [],
      "stateMutability": "payable",
      "type": "function",
      "payable": true
    },
    {
      "inputs": [],
      "name": "isOwner",
      "outputs": [
        {
          "internalType": "bool",
          "name": "",
          "type": "bool"
        }
      ],
      "stateMutability": "view",
      "type": "function",
      "constant": true
    },
    {
      "inputs": [
        {
          "internalType": "address",
          "name": "",
          "type": "address"
        }
      ],
      "name": "numBetsAddress",
      "outputs": [
        {
          "internalType": "uint256",
          "name": "",
          "type": "uint256"
        }
      ],
      "stateMutability": "view",
      "type": "function",
      "constant": true
    },
    {
      "inputs": [],
      "name": "owner",
      "outputs": [
        {
          "internalType": "address",
          "name": "",
          "type": "address"
        }
      ],
      "stateMutability": "view",
      "type": "function",
      "constant": true
    },
    {
      "inputs": [],
      "name": "ownerBalance",
      "outputs": [
        {
          "internalType": "uint256",
          "name": "",
          "type": "uint256"
        }
      ],
      "stateMutability": "view",
      "type": "function",
      "constant": true
    },
    {
      "inputs": [],
      "name": "renounceOwnership",
      "outputs": [],
      "stateMutability": "nonpayable",
      "type": "function"
    },
    {
      "inputs": [
        {
          "internalType": "uint256",
          "name": "",
          "type": "uint256"
        }
      ],
      "name": "teams",
      "outputs": [
        {
          "internalType": "string",
          "name": "name",
          "type": "string"
        },
        {
          "internalType": "uint256",
          "name": "totalBetAmount",
          "type": "uint256"
        }
      ],
      "stateMutability": "view",
      "type": "function",
      "constant": true
    },
    {
      "inputs": [],
      "name": "totalBetMoney",
      "outputs": [
        {
          "internalType": "uint256",
          "name": "",
          "type": "uint256"
        }
      ],
      "stateMutability": "view",
      "type": "function",
      "constant": true
    },
    {
      "inputs": [
        {
          "internalType": "address[]",
          "name": "receivers",
          "type": "address[]"
        },
        {
          "internalType": "uint256",
          "name": "amount",
          "type": "uint256"
        }
      ],
      "name": "transfer",
      "outputs": [],
      "stateMutability": "nonpayable",
      "type": "function"
    },
    {
      "inputs": [
        {
          "internalType": "address",
          "name": "receiver",
          "type": "address"
        },
        {
          "internalType": "uint256",
          "name": "amount",
          "type": "uint256"
        }
      ],
      "name": "transfer",
      "outputs": [],
      "stateMutability": "nonpayable",
      "type": "function"
    },
    {
      "inputs": [
        {
          "internalType": "address",
          "name": "newOwner",
          "type": "address"
        }
      ],
      "name": "transferOwnership",
      "outputs": [],
      "stateMutability": "nonpayable",
      "type": "function"
    },
    {
      "inputs": [
        {
          "internalType": "uint256",
          "name": "amount",
          "type": "uint256"
        }
      ],
      "name": "withdraw",
      "outputs": [],
      "stateMutability": "nonpayable",
      "type": "function"
    },
    {
      "inputs": [],
      "name": "getOwner",
      "outputs": [
        {
          "internalType": "address",
          "name": "",
          "type": "address"
        }
      ],
      "stateMutability": "view",
      "type": "function",
      "constant": true
    },
    {
      "inputs": [],
      "name": "getOriginalBal",
      "outputs": [
        {
          "internalType": "uint256",
          "name": "",
          "type": "uint256"
        }
      ],
      "stateMutability": "view",
      "type": "function",
      "constant": true
    },
    {
      "inputs": [
        {
          "internalType": "string",
          "name": "_name",
          "type": "string"
        }
      ],
      "name": "createTeam",
      "outputs": [],
      "stateMutability": "nonpayable",
      "type": "function"
    },
    {
      "inputs": [
        {
          "internalType": "uint256",
          "name": "_teamId",
          "type": "uint256"
        }
      ],
      "name": "getTotalBetAmount",
      "outputs": [
        {
          "internalType": "uint256",
          "name": "",
          "type": "uint256"
        }
      ],
      "stateMutability": "view",
      "type": "function",
      "constant": true
    },
    {
      "inputs": [
        {
          "internalType": "string",
          "name": "_name",
          "type": "string"
        },
        {
          "internalType": "uint256",
          "name": "_teamId",
          "type": "uint256"
        }
      ],
      "name": "createBet",
      "outputs": [],
      "stateMutability": "payable",
      "type": "function",
      "payable": true
    },
    {
      "inputs": [
        {
          "internalType": "uint256",
          "name": "_teamId",
          "type": "uint256"
        }
      ],
      "name": "teamWinDistribution",
      "outputs": [],
      "stateMutability": "payable",
      "type": "function",
      "payable": true
    }
  ],
  "bytecode": "0x6080604052600060065533600160006101000a81548173ffffffffffffffffffffffffffffffffffffffff021916908373ffffffffffffffffffffffffffffffffffffffff160217905550600160009054906101000a900473ffffffffffffffffffffffffffffffffffffffff1673ffffffffffffffffffffffffffffffffffffffff16600073ffffffffffffffffffffffffffffffffffffffff167f8be0079c531659141344cd1fd0a4f28419497f9722a3daafe3b4186f6b6457e060405160405180910390a333600460006101000a81548173ffffffffffffffffffffffffffffffffffffffff021916908373ffffffffffffffffffffffffffffffffffffffff1602179055503373ffffffffffffffffffffffffffffffffffffffff1631600581905550600360405180604001604052806040518060400160405280600581526020017f7465616d310000000000000000000000000000000000000000000000000000008152508152602001600081525090806001815401808255809150506001900390600052602060002090600202016000909190919091506000820151816000019080519060200190620001ba9291906200026e565b50602082015181600101555050600360405180604001604052806040518060400160405280600581526020017f7465616d3200000000000000000000000000000000000000000000000000000081525081526020016000815250908060018154018082558091505060019003906000526020600020906002020160009091909190915060008201518160000190805190602001906200025b9291906200026e565b5060208201518160010155505062000383565b8280546200027c906200034d565b90600052602060002090601f016020900481019282620002a05760008555620002ec565b82601f10620002bb57805160ff1916838001178555620002ec565b82800160010185558215620002ec579182015b82811115620002eb578251825591602001919060010190620002ce565b5b509050620002fb9190620002ff565b5090565b5b808211156200031a57600081600090555060010162000300565b5090565b7f4e487b7100000000000000000000000000000000000000000000000000000000600052602260045260246000fd5b600060028204905060018216806200036657607f821691505b602082108114156200037d576200037c6200031e565b5b50919050565b612bf980620003936000396000f3fe60806040526004361061012a5760003560e01c8063715018a6116100ab578063a9059cbb1161006f578063a9059cbb146103da578063bedcf00314610403578063c8e405151461042e578063d0e30db014610459578063d670420614610463578063f2fde38b1461047f5761012a565b8063715018a614610319578063893d20e8146103305780638da5cb5b1461035b5780638f32d59b14610386578063972fa53f146103b15761012a565b80633ed2b77a116100f25780633ed2b77a1461023b5780634610a13114610279578063481972c41461029557806350de367a146102b157806366028e99146102ee5761012a565b80630e89da561461012f5780631939c1ff1461016c57806322af00fa1461019557806327e235e3146101d55780632e1a7d4d14610212575b600080fd5b34801561013b57600080fd5b5061015660048036038101906101519190611dd3565b6104a8565b6040516101639190611e0f565b60405180910390f35b34801561017857600080fd5b50610193600480360381019061018e9190611fe1565b6104d7565b005b3480156101a157600080fd5b506101bc60048036038101906101b79190611dd3565b6106a1565b6040516101cc949392919061216a565b60405180910390f35b3480156101e157600080fd5b506101fc60048036038101906101f791906121bd565b61082f565b6040516102099190611e0f565b60405180910390f35b34801561021e57600080fd5b5061023960048036038101906102349190611dd3565b610847565b005b34801561024757600080fd5b50610262600480360381019061025d9190611dd3565b610959565b6040516102709291906121ea565b60405180910390f35b610293600480360381019061028e9190611dd3565b610a15565b005b6102af60048036038101906102aa9190611dd3565b610acc565b005b3480156102bd57600080fd5b506102d860048036038101906102d391906121bd565b6110cc565b6040516102e59190611e0f565b60405180910390f35b3480156102fa57600080fd5b506103036110e4565b6040516103109190611e0f565b60405180910390f35b34801561032557600080fd5b5061032e611125565b005b34801561033c57600080fd5b506103456111f7565b604051610352919061221a565b60405180910390f35b34801561036757600080fd5b50610370611221565b60405161037d919061221a565b60405180910390f35b34801561039257600080fd5b5061039b61124b565b6040516103a89190612250565b60405180910390f35b3480156103bd57600080fd5b506103d860048036038101906103d39190612320565b6112a3565b005b3480156103e657600080fd5b5061040160048036038101906103fc9190612369565b611310565b005b34801561040f57600080fd5b5061041861147a565b6040516104259190611e0f565b60405180910390f35b34801561043a57600080fd5b50610443611480565b6040516104509190611e0f565b60405180910390f35b610461611486565b005b61047d600480360381019061047891906123a9565b611516565b005b34801561048b57600080fd5b506104a660048036038101906104a191906121bd565b611a74565b005b6000600382815481106104be576104bd612405565b5b9060005260206000209060020201600101549050919050565b8082516104e49190612463565b6000803373ffffffffffffffffffffffffffffffffffffffff1673ffffffffffffffffffffffffffffffffffffffff168152602001908152602001600020541015610564576040517f08c379a000000000000000000000000000000000000000000000000000000000815260040161055b90612509565b60405180910390fd5b60005b825181101561069c577fddf252ad1be2c89b69c2b068fc378daa952ba7f163c4a11628f55a4df523b3ef338483815181106105a5576105a4612405565b5b6020026020010151846040516105bd93929190612529565b60405180910390a1816000803373ffffffffffffffffffffffffffffffffffffffff1673ffffffffffffffffffffffffffffffffffffffff16815260200190815260200160002060008282546106139190612560565b925050819055508160008085848151811061063157610630612405565b5b602002602001015173ffffffffffffffffffffffffffffffffffffffff1673ffffffffffffffffffffffffffffffffffffffff16815260200190815260200160002060008282546106829190612594565b925050819055508080610694906125ea565b915050610567565b505050565b600281815481106106b157600080fd5b90600052602060002090600502016000915090508060000180546106d490612662565b80601f016020809104026020016040519081016040528092919081815260200182805461070090612662565b801561074d5780601f106107225761010080835404028352916020019161074d565b820191906000526020600020905b81548152906001019060200180831161073057829003601f168201915b5050505050908060010160009054906101000a900473ffffffffffffffffffffffffffffffffffffffff16908060020154908060030160405180604001604052908160008201805461079e90612662565b80601f01602080910402602001604051908101604052809291908181526020018280546107ca90612662565b80156108175780601f106107ec57610100808354040283529160200191610817565b820191906000526020600020905b8154815290600101906020018083116107fa57829003601f168201915b50505050508152602001600182015481525050905084565b60006020528060005260406000206000915090505481565b806000803373ffffffffffffffffffffffffffffffffffffffff1673ffffffffffffffffffffffffffffffffffffffff1681526020019081526020016000205410156108c8576040517f08c379a00000000000000000000000000000000000000000000000000000000081526004016108bf90612509565b60405180910390fd5b7f7fcf532c15f0a6db0bd6d0e038bea71d30d808c7d98cb3bf7268a95bf5081b6533826040516108f9929190612694565b60405180910390a1806000803373ffffffffffffffffffffffffffffffffffffffff1673ffffffffffffffffffffffffffffffffffffffff168152602001908152602001600020600082825461094f9190612560565b9250508190555050565b6003818154811061096957600080fd5b906000526020600020906002020160009150905080600001805461098c90612662565b80601f01602080910402602001604051908101604052809291908181526020018280546109b890612662565b8015610a055780601f106109da57610100808354040283529160200191610a05565b820191906000526020600020905b8154815290600101906020018083116109e857829003601f168201915b5050505050908060010154905082565b7fe1fffcc4923d04b559f4d29a8bfc6cda04eb5b0d3c460751c2402c5c5cc9109c33670de0b6b3a764000083610a4b9190612463565b604051610a59929190612694565b60405180910390a1670de0b6b3a764000081610a759190612463565b6000803373ffffffffffffffffffffffffffffffffffffffff1673ffffffffffffffffffffffffffffffffffffffff1681526020019081526020016000206000828254610ac29190612594565b9250508190555050565b610ad461124b565b610add57600080fd5b610ae5611486565b600080821415610d545760005b600280549050811015610d4e57604051602001610b0e90612714565b6040516020818303038152906040528051906020012060028281548110610b3857610b37612405565b5b9060005260206000209060050201600301600001604051602001610b5c91906127bd565b604051602081830303815290604052805190602001201415610d3b57600060028281548110610b8e57610b8d612405565b5b906000526020600020906005020160010160009054906101000a900473ffffffffffffffffffffffffffffffffffffffff169050610bcb81611a91565b6127106003600081548110610be357610be2612405565b5b9060005260206000209060020201600101546127106003600181548110610c0d57610c0c612405565b5b906000526020600020906002020160010154610c299190612463565b610c339190612803565b612710610c409190612594565b60028481548110610c5457610c53612405565b5b906000526020600020906005020160020154610c709190612463565b610c7a9190612803565b92506000808273ffffffffffffffffffffffffffffffffffffffff1661271086610ca49190612560565b604051610cb090612865565b60006040518083038185875af1925050503d8060008114610ced576040519150601f19603f3d011682016040523d82523d6000602084013e610cf2565b606091505b509150915081610d37576040517f08c379a0000000000000000000000000000000000000000000000000000000008152600401610d2e906128c6565b60405180910390fd5b5050505b8080610d46906125ea565b915050610af2565b50610fba565b60005b600280549050811015610fb857604051602001610d7390612932565b6040516020818303038152906040528051906020012060028281548110610d9d57610d9c612405565b5b9060005260206000209060050201600301600001604051602001610dc191906127bd565b604051602081830303815290604052805190602001201415610fa557600060028281548110610df357610df2612405565b5b906000526020600020906005020160010160009054906101000a900473ffffffffffffffffffffffffffffffffffffffff1690506127106003600181548110610e3f57610e3e612405565b5b9060005260206000209060020201600101546127106003600081548110610e6957610e68612405565b5b906000526020600020906002020160010154610e859190612463565b610e8f9190612803565b612710610e9c9190612594565b60028481548110610eb057610eaf612405565b5b906000526020600020906005020160020154610ecc9190612463565b610ed69190612803565b9250610eea610ee560006104a8565b611b2a565b610ef383611b2a565b6000808273ffffffffffffffffffffffffffffffffffffffff1685604051610f1a90612865565b60006040518083038185875af1925050503d8060008114610f57576040519150601f19603f3d011682016040523d82523d6000602084013e610f5c565b606091505b509150915081610fa1576040517f08c379a0000000000000000000000000000000000000000000000000000000008152600401610f98906128c6565b60405180910390fd5b5050505b8080610fb0906125ea565b915050610d57565b505b600060068190555060006003600081548110610fd957610fd8612405565b5b9060005260206000209060020201600101819055506000600360018154811061100557611004612405565b5b90600052602060002090600202016001018190555060005b6002805490508110156110c7576000600760006002848154811061104457611043612405565b5b906000526020600020906005020160010160009054906101000a900473ffffffffffffffffffffffffffffffffffffffff1673ffffffffffffffffffffffffffffffffffffffff1673ffffffffffffffffffffffffffffffffffffffff1681526020019081526020016000208190555080806110bf906125ea565b91505061101d565b505050565b60076020528060005260406000206000915090505481565b6000600460009054906101000a900473ffffffffffffffffffffffffffffffffffffffff1673ffffffffffffffffffffffffffffffffffffffff1631905090565b61112d61124b565b61113657600080fd5b600073ffffffffffffffffffffffffffffffffffffffff16600160009054906101000a900473ffffffffffffffffffffffffffffffffffffffff1673ffffffffffffffffffffffffffffffffffffffff167f8be0079c531659141344cd1fd0a4f28419497f9722a3daafe3b4186f6b6457e060405160405180910390a36000600160006101000a81548173ffffffffffffffffffffffffffffffffffffffff021916908373ffffffffffffffffffffffffffffffffffffffff160217905550565b6000600460009054906101000a900473ffffffffffffffffffffffffffffffffffffffff16905090565b6000600160009054906101000a900473ffffffffffffffffffffffffffffffffffffffff16905090565b6000600160009054906101000a900473ffffffffffffffffffffffffffffffffffffffff1673ffffffffffffffffffffffffffffffffffffffff163373ffffffffffffffffffffffffffffffffffffffff1614905090565b60036040518060400160405280838152602001600081525090806001815401808255809150506001900390600052602060002090600202016000909190919091506000820151816000019080519060200190611300929190611ce6565b5060208201518160010155505050565b806000803373ffffffffffffffffffffffffffffffffffffffff1673ffffffffffffffffffffffffffffffffffffffff168152602001908152602001600020541015611391576040517f08c379a000000000000000000000000000000000000000000000000000000000815260040161138890612509565b60405180910390fd5b7fddf252ad1be2c89b69c2b068fc378daa952ba7f163c4a11628f55a4df523b3ef3383836040516113c493929190612529565b60405180910390a1806000803373ffffffffffffffffffffffffffffffffffffffff1673ffffffffffffffffffffffffffffffffffffffff168152602001908152602001600020600082825461141a9190612560565b92505081905550806000808473ffffffffffffffffffffffffffffffffffffffff1673ffffffffffffffffffffffffffffffffffffffff168152602001908152602001600020600082825461146f9190612594565b925050819055505050565b60055481565b60065481565b7fe1fffcc4923d04b559f4d29a8bfc6cda04eb5b0d3c460751c2402c5c5cc9109c33346040516114b7929190612694565b60405180910390a1346000803373ffffffffffffffffffffffffffffffffffffffff1673ffffffffffffffffffffffffffffffffffffffff168152602001908152602001600020600082825461150d9190612594565b92505081905550565b600460009054906101000a900473ffffffffffffffffffffffffffffffffffffffff1673ffffffffffffffffffffffffffffffffffffffff163373ffffffffffffffffffffffffffffffffffffffff1614156115a7576040517f08c379a000000000000000000000000000000000000000000000000000000000815260040161159e90612993565b60405180910390fd5b6000600760003373ffffffffffffffffffffffffffffffffffffffff1673ffffffffffffffffffffffffffffffffffffffff1681526020019081526020016000205414611629576040517f08c379a0000000000000000000000000000000000000000000000000000000008152600401611620906129ff565b60405180910390fd5b662386f26fc100003411611672576040517f08c379a000000000000000000000000000000000000000000000000000000000815260040161166990612a6b565b60405180910390fd5b61167a611486565b600260405180608001604052808481526020013373ffffffffffffffffffffffffffffffffffffffff168152602001348152602001600384815481106116c3576116c2612405565b5b90600052602060002090600202016040518060400160405290816000820180546116ec90612662565b80601f016020809104026020016040519081016040528092919081815260200182805461171890612662565b80156117655780601f1061173a57610100808354040283529160200191611765565b820191906000526020600020905b81548152906001019060200180831161174857829003601f168201915b50505050508152602001600182015481525050815250908060018154018082558091505060019003906000526020600020906005020160009091909190915060008201518160000190805190602001906117c0929190611ce6565b5060208201518160010160006101000a81548173ffffffffffffffffffffffffffffffffffffffff021916908373ffffffffffffffffffffffffffffffffffffffff160217905550604082015181600201556060820151816003016000820151816000019080519060200190611837929190611ce6565b506020820151816001015550505050600081141561188d5734600360008154811061186557611864612405565b5b906000526020600020906002020160010160008282546118859190612594565b925050819055505b60018114156118d4573460036001815481106118ac576118ab612405565b5b906000526020600020906002020160010160008282546118cc9190612594565b925050819055505b600760003373ffffffffffffffffffffffffffffffffffffffff1673ffffffffffffffffffffffffffffffffffffffff1681526020019081526020016000206000815480929190611924906125ea565b9190505550600080600460009054906101000a900473ffffffffffffffffffffffffffffffffffffffff1673ffffffffffffffffffffffffffffffffffffffff163460405161197290612865565b60006040518083038185875af1925050503d80600081146119af576040519150601f19603f3d011682016040523d82523d6000602084013e6119b4565b606091505b5091509150816119f9576040517f08c379a00000000000000000000000000000000000000000000000000000000081526004016119f0906128c6565b60405180910390fd5b3460066000828254611a0b9190612594565b925050819055507f948a46eba9469fc822b082631d32f2456ea94a35179d32230095b6f34fb341cb333460038681548110611a4957611a48612405565b5b9060005260206000209060020201604051611a6693929190612b85565b60405180910390a150505050565b611a7c61124b565b611a8557600080fd5b611a8e81611bc3565b50565b611b2781604051602401611aa5919061221a565b6040516020818303038152906040527f2c2ecbc2000000000000000000000000000000000000000000000000000000007bffffffffffffffffffffffffffffffffffffffffffffffffffffffff19166020820180517bffffffffffffffffffffffffffffffffffffffffffffffffffffffff8381831617835250505050611cbd565b50565b611bc081604051602401611b3e9190611e0f565b6040516020818303038152906040527ff5b1bba9000000000000000000000000000000000000000000000000000000007bffffffffffffffffffffffffffffffffffffffffffffffffffffffff19166020820180517bffffffffffffffffffffffffffffffffffffffffffffffffffffffff8381831617835250505050611cbd565b50565b600073ffffffffffffffffffffffffffffffffffffffff168173ffffffffffffffffffffffffffffffffffffffff161415611bfd57600080fd5b8073ffffffffffffffffffffffffffffffffffffffff16600160009054906101000a900473ffffffffffffffffffffffffffffffffffffffff1673ffffffffffffffffffffffffffffffffffffffff167f8be0079c531659141344cd1fd0a4f28419497f9722a3daafe3b4186f6b6457e060405160405180910390a380600160006101000a81548173ffffffffffffffffffffffffffffffffffffffff021916908373ffffffffffffffffffffffffffffffffffffffff16021790555050565b60008151905060006a636f6e736f6c652e6c6f679050602083016000808483855afa5050505050565b828054611cf290612662565b90600052602060002090601f016020900481019282611d145760008555611d5b565b82601f10611d2d57805160ff1916838001178555611d5b565b82800160010185558215611d5b579182015b82811115611d5a578251825591602001919060010190611d3f565b5b509050611d689190611d6c565b5090565b5b80821115611d85576000816000905550600101611d6d565b5090565b6000604051905090565b600080fd5b600080fd5b6000819050919050565b611db081611d9d565b8114611dbb57600080fd5b50565b600081359050611dcd81611da7565b92915050565b600060208284031215611de957611de8611d93565b5b6000611df784828501611dbe565b91505092915050565b611e0981611d9d565b82525050565b6000602082019050611e246000830184611e00565b92915050565b600080fd5b6000601f19601f8301169050919050565b7f4e487b7100000000000000000000000000000000000000000000000000000000600052604160045260246000fd5b611e7882611e2f565b810181811067ffffffffffffffff82111715611e9757611e96611e40565b5b80604052505050565b6000611eaa611d89565b9050611eb68282611e6f565b919050565b600067ffffffffffffffff821115611ed657611ed5611e40565b5b602082029050602081019050919050565b600080fd5b600073ffffffffffffffffffffffffffffffffffffffff82169050919050565b6000611f1782611eec565b9050919050565b611f2781611f0c565b8114611f3257600080fd5b50565b600081359050611f4481611f1e565b92915050565b6000611f5d611f5884611ebb565b611ea0565b90508083825260208201905060208402830185811115611f8057611f7f611ee7565b5b835b81811015611fa95780611f958882611f35565b845260208401935050602081019050611f82565b5050509392505050565b600082601f830112611fc857611fc7611e2a565b5b8135611fd8848260208601611f4a565b91505092915050565b60008060408385031215611ff857611ff7611d93565b5b600083013567ffffffffffffffff81111561201657612015611d98565b5b61202285828601611fb3565b925050602061203385828601611dbe565b9150509250929050565b600081519050919050565b600082825260208201905092915050565b60005b8381101561207757808201518184015260208101905061205c565b83811115612086576000848401525b50505050565b60006120978261203d565b6120a18185612048565b93506120b1818560208601612059565b6120ba81611e2f565b840191505092915050565b6120ce81611f0c565b82525050565b600082825260208201905092915050565b60006120f08261203d565b6120fa81856120d4565b935061210a818560208601612059565b61211381611e2f565b840191505092915050565b61212781611d9d565b82525050565b6000604083016000830151848203600086015261214a82826120e5565b915050602083015161215f602086018261211e565b508091505092915050565b60006080820190508181036000830152612184818761208c565b905061219360208301866120c5565b6121a06040830185611e00565b81810360608301526121b2818461212d565b905095945050505050565b6000602082840312156121d3576121d2611d93565b5b60006121e184828501611f35565b91505092915050565b60006040820190508181036000830152612204818561208c565b90506122136020830184611e00565b9392505050565b600060208201905061222f60008301846120c5565b92915050565b60008115159050919050565b61224a81612235565b82525050565b60006020820190506122656000830184612241565b92915050565b600080fd5b600067ffffffffffffffff82111561228b5761228a611e40565b5b61229482611e2f565b9050602081019050919050565b82818337600083830152505050565b60006122c36122be84612270565b611ea0565b9050828152602081018484840111156122df576122de61226b565b5b6122ea8482856122a1565b509392505050565b600082601f83011261230757612306611e2a565b5b81356123178482602086016122b0565b91505092915050565b60006020828403121561233657612335611d93565b5b600082013567ffffffffffffffff81111561235457612353611d98565b5b612360848285016122f2565b91505092915050565b600080604083850312156123805761237f611d93565b5b600061238e85828601611f35565b925050602061239f85828601611dbe565b9150509250929050565b600080604083850312156123c0576123bf611d93565b5b600083013567ffffffffffffffff8111156123de576123dd611d98565b5b6123ea858286016122f2565b92505060206123fb85828601611dbe565b9150509250929050565b7f4e487b7100000000000000000000000000000000000000000000000000000000600052603260045260246000fd5b7f4e487b7100000000000000000000000000000000000000000000000000000000600052601160045260246000fd5b600061246e82611d9d565b915061247983611d9d565b9250817fffffffffffffffffffffffffffffffffffffffffffffffffffffffffffffffff04831182151516156124b2576124b1612434565b5b828202905092915050565b7f496e73756666696369656e742066756e64730000000000000000000000000000600082015250565b60006124f3601283612048565b91506124fe826124bd565b602082019050919050565b60006020820190508181036000830152612522816124e6565b9050919050565b600060608201905061253e60008301866120c5565b61254b60208301856120c5565b6125586040830184611e00565b949350505050565b600061256b82611d9d565b915061257683611d9d565b92508282101561258957612588612434565b5b828203905092915050565b600061259f82611d9d565b91506125aa83611d9d565b9250827fffffffffffffffffffffffffffffffffffffffffffffffffffffffffffffffff038211156125df576125de612434565b5b828201905092915050565b60006125f582611d9d565b91507fffffffffffffffffffffffffffffffffffffffffffffffffffffffffffffffff82141561262857612627612434565b5b600182019050919050565b7f4e487b7100000000000000000000000000000000000000000000000000000000600052602260045260246000fd5b6000600282049050600182168061267a57607f821691505b6020821081141561268e5761268d612633565b5b50919050565b60006040820190506126a960008301856120c5565b6126b66020830184611e00565b9392505050565b600081905092915050565b7f7465616d31000000000000000000000000000000000000000000000000000000600082015250565b60006126fe6005836126bd565b9150612709826126c8565b600582019050919050565b600061271f826126f1565b9150819050919050565b60008190508160005260206000209050919050565b6000815461274b81612662565b61275581866126bd565b945060018216600081146127705760018114612781576127b4565b60ff198316865281860193506127b4565b61278a85612729565b60005b838110156127ac5781548189015260018201915060208101905061278d565b838801955050505b50505092915050565b60006127c9828461273e565b915081905092915050565b7f4e487b7100000000000000000000000000000000000000000000000000000000600052601260045260246000fd5b600061280e82611d9d565b915061281983611d9d565b925082612829576128286127d4565b5b828204905092915050565b600081905092915050565b50565b600061284f600083612834565b915061285a8261283f565b600082019050919050565b600061287082612842565b9150819050919050565b7f4661696c656420746f2073656e64204574686572000000000000000000000000600082015250565b60006128b0601483612048565b91506128bb8261287a565b602082019050919050565b600060208201905081810360008301526128df816128a3565b9050919050565b7f7465616d32000000000000000000000000000000000000000000000000000000600082015250565b600061291c6005836126bd565b9150612927826128e6565b600582019050919050565b600061293d8261290f565b9150819050919050565b7f6f776e65722063616e2774206d616b6520612062657400000000000000000000600082015250565b600061297d601683612048565b915061298882612947565b602082019050919050565b600060208201905081810360008301526129ac81612970565b9050919050565b7f796f75206861766520616c726561647920706c61636564206120626574000000600082015250565b60006129e9601d83612048565b91506129f4826129b3565b602082019050919050565b60006020820190508181036000830152612a18816129dc565b9050919050565b7f626574206d6f7265000000000000000000000000000000000000000000000000600082015250565b6000612a55600883612048565b9150612a6082612a1f565b602082019050919050565b60006020820190508181036000830152612a8481612a48565b9050919050565b60008154612a9881612662565b612aa281866120d4565b94506001821660008114612abd5760018114612acf57612b02565b60ff1983168652602086019350612b02565b612ad885612729565b60005b83811015612afa57815481890152600182019150602081019050612adb565b808801955050505b50505092915050565b60008160001c9050919050565b6000819050919050565b6000612b35612b3083612b0b565b612b18565b9050919050565b60006040830160008084018583036000870152612b598382612a8b565b92505060018401549050612b6c81612b22565b612b79602087018261211e565b50819250505092915050565b6000606082019050612b9a60008301866120c5565b612ba76020830185611e00565b8181036040830152612bb98184612b3c565b905094935050505056fea264697066735822122058d34d95091fffbe817b35998d38902584b3415d23cfea9d11f861d4cf2c7d5a64736f6c634300080b0033",
  "immutableReferences": {},
  "source": "pragma solidity 0.8.11;\r\n\r\nimport \"./ownable.sol\";\r\nimport \"./ATM.sol\";\r\nimport \"./console.sol\";\r\n// import \"./sendEther.sol\";\r\n// import \"./safemath.sol\";\r\n\r\ncontract bet is ATM, Ownable {\r\n\r\n    // using SafeMath for uint256;\r\n\r\n    event NewBet(\r\n        address addy, \r\n        uint amount, \r\n        Team teamBet\r\n    );\r\n\r\n    struct Bet {\r\n        string name;\r\n        address addy;\r\n        uint amount;\r\n        Team teamBet;\r\n    }\r\n\r\n    struct Team {\r\n        string name;\r\n        uint totalBetAmount;\r\n    }\r\n\r\n    Bet[] public bets;\r\n    Team[] public teams;\r\n    \r\n    address payable conOwner;\r\n    uint public ownerBalance;\r\n    uint public totalBetMoney = 0;\r\n\r\n    constructor() payable {\r\n        conOwner = payable(msg.sender); // setting the contract creator\r\n        ownerBalance = msg.sender.balance;\r\n        teams.push(Team(\"team1\", 0));\r\n        teams.push(Team(\"team2\", 0));\r\n\r\n    }\r\n\r\n    mapping (address => uint) public numBetsAddress; //made to ensure person can only bet once\r\n\r\n    function getOwner() public view returns (address) {\r\n        return conOwner;\r\n    }\r\n\r\n    function getOriginalBal() public view returns (uint256) {\r\n        return conOwner.balance;\r\n    }\r\n\r\n    function createTeam (string memory _name) public {\r\n        teams.push(Team(_name, 0));\r\n    }\r\n\r\n    function getTotalBetAmount (uint _teamId) public view returns (uint) {\r\n        return teams[_teamId].totalBetAmount;\r\n    }\r\n    \r\n    function createBet (string memory _name, uint _teamId) external payable {       \r\n        require (msg.sender != conOwner, \"owner can't make a bet\");\r\n        require (numBetsAddress[msg.sender] == 0, \"you have already placed a bet\");\r\n        require (msg.value > 0.01 ether, \"bet more\");\r\n\r\n        deposit();\r\n\r\n        bets.push(Bet(_name, msg.sender, msg.value, teams[_teamId]));\r\n\r\n        if (_teamId == 0) {\r\n            teams[0].totalBetAmount += msg.value;\r\n        } \r\n        if (_teamId == 1) {\r\n            teams[1].totalBetAmount += msg.value;\r\n        }\r\n\r\n        numBetsAddress[msg.sender]++;\r\n        \r\n        (bool sent, bytes memory data) = conOwner.call{value: msg.value}(\"\");\r\n        require(sent, \"Failed to send Ether\");\r\n\r\n        totalBetMoney += msg.value;\r\n\r\n        emit NewBet(msg.sender, msg.value, teams[_teamId]);\r\n\r\n    }\r\n\r\n    function teamWinDistribution(uint _teamId) external payable onlyOwner() {\r\n        \r\n        deposit();\r\n        uint div;\r\n                \r\n        if (_teamId == 0) {\r\n            for (uint i = 0; i < bets.length; i++) {\r\n                if (keccak256(abi.encodePacked((bets[i].teamBet.name))) == keccak256(abi.encodePacked(\"team1\"))) {\r\n                    address payable receiver = payable(bets[i].addy);\r\n                    console.log(receiver);\r\n                    div = (bets[i].amount * (10000 + (teams[1].totalBetAmount * 10000 / teams[0].totalBetAmount))) / 10000;\r\n\r\n                    (bool sent, bytes memory data) = receiver.call{ value: div - 10000 }(\"\");\r\n                    require(sent, \"Failed to send Ether\");\r\n                    \r\n                }\r\n            }\r\n        } else {\r\n            for (uint i = 0; i < bets.length; i++) {\r\n                if (keccak256(abi.encodePacked((bets[i].teamBet.name))) == keccak256(abi.encodePacked(\"team2\"))) {\r\n                    address payable receiver = payable(bets[i].addy);\r\n                    div = (bets[i].amount * (10000 + (teams[0].totalBetAmount * 10000 / teams[1].totalBetAmount))) / 10000;\r\n                    console.log(getTotalBetAmount(0));\r\n                    console.log(div);\r\n\r\n                    (bool sent, bytes memory data) = receiver.call{ value: div }(\"\");\r\n                    require(sent, \"Failed to send Ether\");\r\n                }\r\n            }\r\n        }\r\n\r\n        totalBetMoney = 0;\r\n        teams[0].totalBetAmount = 0;\r\n        teams[1].totalBetAmount = 0;\r\n\r\n        for (uint i = 0; i < bets.length; i++) {\r\n            numBetsAddress[bets[i].addy] = 0;\r\n        }\r\n\r\n    }\r\n\r\n\r\n}",
  "sourcePath": "C:\\Users\\coolf\\Desktop\\betFrontEnd\\src\\contracts\\bet.sol",
  "compiler": {
    "name": "solc",
    "version": "0.8.11+commit.d7f03943.Emscripten.clang"
  },
  "schemaVersion": "3.4.4",
  "updatedAt": "2022-01-03T23:37:11.919Z",
  "networkType": "ethereum",
  "devdoc": {
    "kind": "dev",
    "methods": {
      "isOwner()": {
        "returns": {
          "_0": "true if `msg.sender` is the owner of the contract."
        }
      },
      "owner()": {
        "returns": {
          "_0": "the address of the owner."
        }
      },
      "renounceOwnership()": {
        "details": "Allows the current owner to relinquish control of the contract."
      },
      "transferOwnership(address)": {
        "details": "Allows the current owner to transfer control of the contract to a newOwner.",
        "params": {
          "newOwner": "The address to transfer ownership to."
        }
      }
    },
    "version": 1
  },
  "userdoc": {
    "kind": "user",
    "methods": {
      "renounceOwnership()": {
        "notice": "Renouncing to ownership will leave the contract without an owner. It will not be possible to call the functions with the `onlyOwner` modifier anymore."
      }
    },
    "version": 1
  }
}