{
  "contractName": "bet",
  "abi": [
    {
      "inputs": [],
      "stateMutability": "payable",
      "type": "constructor",
      "payable": true
    },
    {
      "anonymous": false,
      "inputs": [
        {
          "indexed": false,
          "internalType": "address",
          "name": "sender",
          "type": "address"
        },
        {
          "indexed": false,
          "internalType": "uint256",
          "name": "amount",
          "type": "uint256"
        }
      ],
      "name": "Deposit",
      "type": "event"
    },
    {
      "anonymous": false,
      "inputs": [
        {
          "indexed": false,
          "internalType": "address",
          "name": "addy",
          "type": "address"
        },
        {
          "indexed": false,
          "internalType": "uint256",
          "name": "amount",
          "type": "uint256"
        },
        {
          "components": [
            {
              "internalType": "string",
              "name": "name",
              "type": "string"
            },
            {
              "internalType": "uint256",
              "name": "totalBetAmount",
              "type": "uint256"
            }
          ],
          "indexed": false,
          "internalType": "struct bet.Team",
          "name": "teamBet",
          "type": "tuple"
        }
      ],
      "name": "NewBet",
      "type": "event"
    },
    {
      "anonymous": false,
      "inputs": [
        {
          "indexed": true,
          "internalType": "address",
          "name": "previousOwner",
          "type": "address"
        },
        {
          "indexed": true,
          "internalType": "address",
          "name": "newOwner",
          "type": "address"
        }
      ],
      "name": "OwnershipTransferred",
      "type": "event"
    },
    {
      "anonymous": false,
      "inputs": [
        {
          "indexed": false,
          "internalType": "address",
          "name": "sender",
          "type": "address"
        },
        {
          "indexed": false,
          "internalType": "address",
          "name": "receiver",
          "type": "address"
        },
        {
          "indexed": false,
          "internalType": "uint256",
          "name": "amount",
          "type": "uint256"
        }
      ],
      "name": "Transfer",
      "type": "event"
    },
    {
      "anonymous": false,
      "inputs": [
        {
          "indexed": false,
          "internalType": "address",
          "name": "receiver",
          "type": "address"
        },
        {
          "indexed": false,
          "internalType": "uint256",
          "name": "amount",
          "type": "uint256"
        }
      ],
      "name": "Withdrawal",
      "type": "event"
    },
    {
      "inputs": [
        {
          "internalType": "address",
          "name": "",
          "type": "address"
        }
      ],
      "name": "balances",
      "outputs": [
        {
          "internalType": "uint256",
          "name": "",
          "type": "uint256"
        }
      ],
      "stateMutability": "view",
      "type": "function",
      "constant": true
    },
    {
      "inputs": [
        {
          "internalType": "uint256",
          "name": "",
          "type": "uint256"
        }
      ],
      "name": "bets",
      "outputs": [
        {
          "internalType": "string",
          "name": "name",
          "type": "string"
        },
        {
          "internalType": "address",
          "name": "addy",
          "type": "address"
        },
        {
          "internalType": "uint256",
          "name": "amount",
          "type": "uint256"
        },
        {
          "components": [
            {
              "internalType": "string",
              "name": "name",
              "type": "string"
            },
            {
              "internalType": "uint256",
              "name": "totalBetAmount",
              "type": "uint256"
            }
          ],
          "internalType": "struct bet.Team",
          "name": "teamBet",
          "type": "tuple"
        }
      ],
      "stateMutability": "view",
      "type": "function",
      "constant": true
    },
    {
      "inputs": [],
      "name": "deposit",
      "outputs": [],
      "stateMutability": "payable",
      "type": "function",
      "payable": true
    },
    {
      "inputs": [
        {
          "internalType": "uint256",
          "name": "val",
          "type": "uint256"
        }
      ],
      "name": "depositBro",
      "outputs": [],
      "stateMutability": "payable",
      "type": "function",
      "payable": true
    },
    {
      "inputs": [],
      "name": "isOwner",
      "outputs": [
        {
          "internalType": "bool",
          "name": "",
          "type": "bool"
        }
      ],
      "stateMutability": "view",
      "type": "function",
      "constant": true
    },
    {
      "inputs": [
        {
          "internalType": "address",
          "name": "",
          "type": "address"
        }
      ],
      "name": "numBetsAddress",
      "outputs": [
        {
          "internalType": "uint256",
          "name": "",
          "type": "uint256"
        }
      ],
      "stateMutability": "view",
      "type": "function",
      "constant": true
    },
    {
      "inputs": [],
      "name": "owna",
      "outputs": [
        {
          "internalType": "address",
          "name": "",
          "type": "address"
        }
      ],
      "stateMutability": "view",
      "type": "function",
      "constant": true
    },
    {
      "inputs": [],
      "name": "owner",
      "outputs": [
        {
          "internalType": "address",
          "name": "",
          "type": "address"
        }
      ],
      "stateMutability": "view",
      "type": "function",
      "constant": true
    },
    {
      "inputs": [],
      "name": "ownerBalance",
      "outputs": [
        {
          "internalType": "uint256",
          "name": "",
          "type": "uint256"
        }
      ],
      "stateMutability": "view",
      "type": "function",
      "constant": true
    },
    {
      "inputs": [],
      "name": "renounceOwnership",
      "outputs": [],
      "stateMutability": "nonpayable",
      "type": "function"
    },
    {
      "inputs": [
        {
          "internalType": "uint256",
          "name": "",
          "type": "uint256"
        }
      ],
      "name": "teams",
      "outputs": [
        {
          "internalType": "string",
          "name": "name",
          "type": "string"
        },
        {
          "internalType": "uint256",
          "name": "totalBetAmount",
          "type": "uint256"
        }
      ],
      "stateMutability": "view",
      "type": "function",
      "constant": true
    },
    {
      "inputs": [],
      "name": "totalBetMoney",
      "outputs": [
        {
          "internalType": "uint256",
          "name": "",
          "type": "uint256"
        }
      ],
      "stateMutability": "view",
      "type": "function",
      "constant": true
    },
    {
      "inputs": [
        {
          "internalType": "address[]",
          "name": "receivers",
          "type": "address[]"
        },
        {
          "internalType": "uint256",
          "name": "amount",
          "type": "uint256"
        }
      ],
      "name": "transfer",
      "outputs": [],
      "stateMutability": "nonpayable",
      "type": "function"
    },
    {
      "inputs": [
        {
          "internalType": "address",
          "name": "receiver",
          "type": "address"
        },
        {
          "internalType": "uint256",
          "name": "amount",
          "type": "uint256"
        }
      ],
      "name": "transfer",
      "outputs": [],
      "stateMutability": "nonpayable",
      "type": "function"
    },
    {
      "inputs": [
        {
          "internalType": "address",
          "name": "newOwner",
          "type": "address"
        }
      ],
      "name": "transferOwnership",
      "outputs": [],
      "stateMutability": "nonpayable",
      "type": "function"
    },
    {
      "inputs": [
        {
          "internalType": "uint256",
          "name": "amount",
          "type": "uint256"
        }
      ],
      "name": "withdraw",
      "outputs": [],
      "stateMutability": "nonpayable",
      "type": "function"
    },
    {
      "inputs": [],
      "name": "getOwner",
      "outputs": [
        {
          "internalType": "address",
          "name": "",
          "type": "address"
        }
      ],
      "stateMutability": "view",
      "type": "function",
      "constant": true
    },
    {
      "inputs": [],
      "name": "getOriginalBal",
      "outputs": [
        {
          "internalType": "uint256",
          "name": "",
          "type": "uint256"
        }
      ],
      "stateMutability": "view",
      "type": "function",
      "constant": true
    },
    {
      "inputs": [
        {
          "internalType": "string",
          "name": "_name",
          "type": "string"
        }
      ],
      "name": "createTeam",
      "outputs": [],
      "stateMutability": "nonpayable",
      "type": "function"
    },
    {
      "inputs": [
        {
          "internalType": "uint256",
          "name": "_teamId",
          "type": "uint256"
        }
      ],
      "name": "getTotalBetAmount",
      "outputs": [
        {
          "internalType": "uint256",
          "name": "",
          "type": "uint256"
        }
      ],
      "stateMutability": "view",
      "type": "function",
      "constant": true
    },
    {
      "inputs": [
        {
          "internalType": "string",
          "name": "_name",
          "type": "string"
        },
        {
          "internalType": "uint256",
          "name": "_teamId",
          "type": "uint256"
        }
      ],
      "name": "createBet",
      "outputs": [],
      "stateMutability": "payable",
      "type": "function",
      "payable": true
    },
    {
      "inputs": [
        {
          "internalType": "uint256",
          "name": "_teamId",
          "type": "uint256"
        }
      ],
      "name": "teamWinDistribution",
      "outputs": [],
      "stateMutability": "payable",
      "type": "function",
      "payable": true
    }
  ],
  "bytecode": "0x6080604052600060075533600160006101000a81548173ffffffffffffffffffffffffffffffffffffffff021916908373ffffffffffffffffffffffffffffffffffffffff160217905550600160009054906101000a900473ffffffffffffffffffffffffffffffffffffffff1673ffffffffffffffffffffffffffffffffffffffff16600073ffffffffffffffffffffffffffffffffffffffff167f8be0079c531659141344cd1fd0a4f28419497f9722a3daafe3b4186f6b6457e060405160405180910390a333600560006101000a81548173ffffffffffffffffffffffffffffffffffffffff021916908373ffffffffffffffffffffffffffffffffffffffff16021790555033600460006101000a81548173ffffffffffffffffffffffffffffffffffffffff021916908373ffffffffffffffffffffffffffffffffffffffff1602179055503373ffffffffffffffffffffffffffffffffffffffff1631600681905550600360405180604001604052806040518060400160405280600581526020017f7465616d310000000000000000000000000000000000000000000000000000008152508152602001600081525090806001815401808255809150506001900390600052602060002090600202016000909190919091506000820151816000019080519060200190620001fb929190620002af565b50602082015181600101555050600360405180604001604052806040518060400160405280600581526020017f7465616d3200000000000000000000000000000000000000000000000000000081525081526020016000815250908060018154018082558091505060019003906000526020600020906002020160009091909190915060008201518160000190805190602001906200029c929190620002af565b50602082015181600101555050620003c4565b828054620002bd906200038e565b90600052602060002090601f016020900481019282620002e157600085556200032d565b82601f10620002fc57805160ff19168380011785556200032d565b828001600101855582156200032d579182015b828111156200032c5782518255916020019190600101906200030f565b5b5090506200033c919062000340565b5090565b5b808211156200035b57600081600090555060010162000341565b5090565b7f4e487b7100000000000000000000000000000000000000000000000000000000600052602260045260246000fd5b60006002820490506001821680620003a757607f821691505b60208210811415620003be57620003bd6200035f565b5b50919050565b612c6e80620003d46000396000f3fe6080604052600436106101355760003560e01c8063715018a6116100ab578063a9059cbb1161006f578063a9059cbb14610410578063bedcf00314610439578063c8e4051514610464578063d0e30db01461048f578063d670420614610499578063f2fde38b146104b557610135565b8063715018a61461034f578063893d20e8146103665780638da5cb5b146103915780638f32d59b146103bc578063972fa53f146103e757610135565b80632e1a7d4d116100fd5780632e1a7d4d146102485780633ed2b77a146102715780634610a131146102af578063481972c4146102cb57806350de367a146102e757806366028e991461032457610135565b80630e89da561461013a578063171fc12e146101775780631939c1ff146101a257806322af00fa146101cb57806327e235e31461020b575b600080fd5b34801561014657600080fd5b50610161600480360381019061015c9190611e48565b6104de565b60405161016e9190611e84565b60405180910390f35b34801561018357600080fd5b5061018c61050d565b6040516101999190611ee0565b60405180910390f35b3480156101ae57600080fd5b506101c960048036038101906101c49190612080565b610533565b005b3480156101d757600080fd5b506101f260048036038101906101ed9190611e48565b6106fd565b60405161020294939291906121fa565b60405180910390f35b34801561021757600080fd5b50610232600480360381019061022d919061224d565b61088b565b60405161023f9190611e84565b60405180910390f35b34801561025457600080fd5b5061026f600480360381019061026a9190611e48565b6108a3565b005b34801561027d57600080fd5b5061029860048036038101906102939190611e48565b6109b5565b6040516102a692919061227a565b60405180910390f35b6102c960048036038101906102c49190611e48565b610a71565b005b6102e560048036038101906102e09190611e48565b610b28565b005b3480156102f357600080fd5b5061030e6004803603810190610309919061224d565b611141565b60405161031b9190611e84565b60405180910390f35b34801561033057600080fd5b50610339611159565b6040516103469190611e84565b60405180910390f35b34801561035b57600080fd5b5061036461119a565b005b34801561037257600080fd5b5061037b61126c565b6040516103889190611ee0565b60405180910390f35b34801561039d57600080fd5b506103a6611296565b6040516103b39190611ee0565b60405180910390f35b3480156103c857600080fd5b506103d16112c0565b6040516103de91906122c5565b60405180910390f35b3480156103f357600080fd5b5061040e60048036038101906104099190612395565b611318565b005b34801561041c57600080fd5b50610437600480360381019061043291906123de565b611385565b005b34801561044557600080fd5b5061044e6114ef565b60405161045b9190611e84565b60405180910390f35b34801561047057600080fd5b506104796114f5565b6040516104869190611e84565b60405180910390f35b6104976114fb565b005b6104b360048036038101906104ae919061241e565b61158b565b005b3480156104c157600080fd5b506104dc60048036038101906104d7919061224d565b611ae9565b005b6000600382815481106104f4576104f361247a565b5b9060005260206000209060020201600101549050919050565b600460009054906101000a900473ffffffffffffffffffffffffffffffffffffffff1681565b80825161054091906124d8565b6000803373ffffffffffffffffffffffffffffffffffffffff1673ffffffffffffffffffffffffffffffffffffffff1681526020019081526020016000205410156105c0576040517f08c379a00000000000000000000000000000000000000000000000000000000081526004016105b79061257e565b60405180910390fd5b60005b82518110156106f8577fddf252ad1be2c89b69c2b068fc378daa952ba7f163c4a11628f55a4df523b3ef338483815181106106015761060061247a565b5b6020026020010151846040516106199392919061259e565b60405180910390a1816000803373ffffffffffffffffffffffffffffffffffffffff1673ffffffffffffffffffffffffffffffffffffffff168152602001908152602001600020600082825461066f91906125d5565b925050819055508160008085848151811061068d5761068c61247a565b5b602002602001015173ffffffffffffffffffffffffffffffffffffffff1673ffffffffffffffffffffffffffffffffffffffff16815260200190815260200160002060008282546106de9190612609565b9250508190555080806106f09061265f565b9150506105c3565b505050565b6002818154811061070d57600080fd5b9060005260206000209060050201600091509050806000018054610730906126d7565b80601f016020809104026020016040519081016040528092919081815260200182805461075c906126d7565b80156107a95780601f1061077e576101008083540402835291602001916107a9565b820191906000526020600020905b81548152906001019060200180831161078c57829003601f168201915b5050505050908060010160009054906101000a900473ffffffffffffffffffffffffffffffffffffffff1690806002015490806003016040518060400160405290816000820180546107fa906126d7565b80601f0160208091040260200160405190810160405280929190818152602001828054610826906126d7565b80156108735780601f1061084857610100808354040283529160200191610873565b820191906000526020600020905b81548152906001019060200180831161085657829003601f168201915b50505050508152602001600182015481525050905084565b60006020528060005260406000206000915090505481565b806000803373ffffffffffffffffffffffffffffffffffffffff1673ffffffffffffffffffffffffffffffffffffffff168152602001908152602001600020541015610924576040517f08c379a000000000000000000000000000000000000000000000000000000000815260040161091b9061257e565b60405180910390fd5b7f7fcf532c15f0a6db0bd6d0e038bea71d30d808c7d98cb3bf7268a95bf5081b653382604051610955929190612709565b60405180910390a1806000803373ffffffffffffffffffffffffffffffffffffffff1673ffffffffffffffffffffffffffffffffffffffff16815260200190815260200160002060008282546109ab91906125d5565b9250508190555050565b600381815481106109c557600080fd5b90600052602060002090600202016000915090508060000180546109e8906126d7565b80601f0160208091040260200160405190810160405280929190818152602001828054610a14906126d7565b8015610a615780601f10610a3657610100808354040283529160200191610a61565b820191906000526020600020905b815481529060010190602001808311610a4457829003601f168201915b5050505050908060010154905082565b7fe1fffcc4923d04b559f4d29a8bfc6cda04eb5b0d3c460751c2402c5c5cc9109c33670de0b6b3a764000083610aa791906124d8565b604051610ab5929190612709565b60405180910390a1670de0b6b3a764000081610ad191906124d8565b6000803373ffffffffffffffffffffffffffffffffffffffff1673ffffffffffffffffffffffffffffffffffffffff1681526020019081526020016000206000828254610b1e9190612609565b9250508190555050565b610b306112c0565b610b3957600080fd5b610b416114fb565b600080821415610db65760005b600280549050811015610db057604051602001610b6a90612789565b6040516020818303038152906040528051906020012060028281548110610b9457610b9361247a565b5b9060005260206000209060050201600301600001604051602001610bb89190612832565b604051602081830303815290604052805190602001201415610d9d57600060028281548110610bea57610be961247a565b5b906000526020600020906005020160010160009054906101000a900473ffffffffffffffffffffffffffffffffffffffff169050610c2781611b06565b6127106003600081548110610c3f57610c3e61247a565b5b9060005260206000209060020201600101546127106003600181548110610c6957610c6861247a565b5b906000526020600020906002020160010154610c8591906124d8565b610c8f9190612878565b612710610c9c9190612609565b60028481548110610cb057610caf61247a565b5b906000526020600020906005020160020154610ccc91906124d8565b610cd69190612878565b92506000808273ffffffffffffffffffffffffffffffffffffffff166702c68af0bb14000086610d0691906125d5565b604051610d12906128da565b60006040518083038185875af1925050503d8060008114610d4f576040519150601f19603f3d011682016040523d82523d6000602084013e610d54565b606091505b509150915081610d99576040517f08c379a0000000000000000000000000000000000000000000000000000000008152600401610d909061293b565b60405180910390fd5b5050505b8080610da89061265f565b915050610b4e565b5061102f565b60005b60028054905081101561102d57604051602001610dd5906129a7565b6040516020818303038152906040528051906020012060028281548110610dff57610dfe61247a565b5b9060005260206000209060050201600301600001604051602001610e239190612832565b60405160208183030381529060405280519060200120141561101a57600060028281548110610e5557610e5461247a565b5b906000526020600020906005020160010160009054906101000a900473ffffffffffffffffffffffffffffffffffffffff1690506127106003600181548110610ea157610ea061247a565b5b9060005260206000209060020201600101546127106003600081548110610ecb57610eca61247a565b5b906000526020600020906002020160010154610ee791906124d8565b610ef19190612878565b612710610efe9190612609565b60028481548110610f1257610f1161247a565b5b906000526020600020906005020160020154610f2e91906124d8565b610f389190612878565b9250610f4c610f4760006104de565b611b9f565b610f5583611b9f565b6000808273ffffffffffffffffffffffffffffffffffffffff166702c68af0bb14000086610f8391906125d5565b604051610f8f906128da565b60006040518083038185875af1925050503d8060008114610fcc576040519150601f19603f3d011682016040523d82523d6000602084013e610fd1565b606091505b509150915081611016576040517f08c379a000000000000000000000000000000000000000000000000000000000815260040161100d9061293b565b60405180910390fd5b5050505b80806110259061265f565b915050610db9565b505b60006007819055506000600360008154811061104e5761104d61247a565b5b9060005260206000209060020201600101819055506000600360018154811061107a5761107961247a565b5b90600052602060002090600202016001018190555060005b60028054905081101561113c57600060086000600284815481106110b9576110b861247a565b5b906000526020600020906005020160010160009054906101000a900473ffffffffffffffffffffffffffffffffffffffff1673ffffffffffffffffffffffffffffffffffffffff1673ffffffffffffffffffffffffffffffffffffffff1681526020019081526020016000208190555080806111349061265f565b915050611092565b505050565b60086020528060005260406000206000915090505481565b6000600560009054906101000a900473ffffffffffffffffffffffffffffffffffffffff1673ffffffffffffffffffffffffffffffffffffffff1631905090565b6111a26112c0565b6111ab57600080fd5b600073ffffffffffffffffffffffffffffffffffffffff16600160009054906101000a900473ffffffffffffffffffffffffffffffffffffffff1673ffffffffffffffffffffffffffffffffffffffff167f8be0079c531659141344cd1fd0a4f28419497f9722a3daafe3b4186f6b6457e060405160405180910390a36000600160006101000a81548173ffffffffffffffffffffffffffffffffffffffff021916908373ffffffffffffffffffffffffffffffffffffffff160217905550565b6000600560009054906101000a900473ffffffffffffffffffffffffffffffffffffffff16905090565b6000600160009054906101000a900473ffffffffffffffffffffffffffffffffffffffff16905090565b6000600160009054906101000a900473ffffffffffffffffffffffffffffffffffffffff1673ffffffffffffffffffffffffffffffffffffffff163373ffffffffffffffffffffffffffffffffffffffff1614905090565b60036040518060400160405280838152602001600081525090806001815401808255809150506001900390600052602060002090600202016000909190919091506000820151816000019080519060200190611375929190611d5b565b5060208201518160010155505050565b806000803373ffffffffffffffffffffffffffffffffffffffff1673ffffffffffffffffffffffffffffffffffffffff168152602001908152602001600020541015611406576040517f08c379a00000000000000000000000000000000000000000000000000000000081526004016113fd9061257e565b60405180910390fd5b7fddf252ad1be2c89b69c2b068fc378daa952ba7f163c4a11628f55a4df523b3ef3383836040516114399392919061259e565b60405180910390a1806000803373ffffffffffffffffffffffffffffffffffffffff1673ffffffffffffffffffffffffffffffffffffffff168152602001908152602001600020600082825461148f91906125d5565b92505081905550806000808473ffffffffffffffffffffffffffffffffffffffff1673ffffffffffffffffffffffffffffffffffffffff16815260200190815260200160002060008282546114e49190612609565b925050819055505050565b60065481565b60075481565b7fe1fffcc4923d04b559f4d29a8bfc6cda04eb5b0d3c460751c2402c5c5cc9109c333460405161152c929190612709565b60405180910390a1346000803373ffffffffffffffffffffffffffffffffffffffff1673ffffffffffffffffffffffffffffffffffffffff16815260200190815260200160002060008282546115829190612609565b92505081905550565b600560009054906101000a900473ffffffffffffffffffffffffffffffffffffffff1673ffffffffffffffffffffffffffffffffffffffff163373ffffffffffffffffffffffffffffffffffffffff16141561161c576040517f08c379a000000000000000000000000000000000000000000000000000000000815260040161161390612a08565b60405180910390fd5b6000600860003373ffffffffffffffffffffffffffffffffffffffff1673ffffffffffffffffffffffffffffffffffffffff168152602001908152602001600020541461169e576040517f08c379a000000000000000000000000000000000000000000000000000000000815260040161169590612a74565b60405180910390fd5b662386f26fc1000034116116e7576040517f08c379a00000000000000000000000000000000000000000000000000000000081526004016116de90612ae0565b60405180910390fd5b6116ef6114fb565b600260405180608001604052808481526020013373ffffffffffffffffffffffffffffffffffffffff168152602001348152602001600384815481106117385761173761247a565b5b9060005260206000209060020201604051806040016040529081600082018054611761906126d7565b80601f016020809104026020016040519081016040528092919081815260200182805461178d906126d7565b80156117da5780601f106117af576101008083540402835291602001916117da565b820191906000526020600020905b8154815290600101906020018083116117bd57829003601f168201915b5050505050815260200160018201548152505081525090806001815401808255809150506001900390600052602060002090600502016000909190919091506000820151816000019080519060200190611835929190611d5b565b5060208201518160010160006101000a81548173ffffffffffffffffffffffffffffffffffffffff021916908373ffffffffffffffffffffffffffffffffffffffff1602179055506040820151816002015560608201518160030160008201518160000190805190602001906118ac929190611d5b565b5060208201518160010155505050506000811415611902573460036000815481106118da576118d961247a565b5b906000526020600020906002020160010160008282546118fa9190612609565b925050819055505b6001811415611949573460036001815481106119215761192061247a565b5b906000526020600020906002020160010160008282546119419190612609565b925050819055505b600860003373ffffffffffffffffffffffffffffffffffffffff1673ffffffffffffffffffffffffffffffffffffffff16815260200190815260200160002060008154809291906119999061265f565b9190505550600080600560009054906101000a900473ffffffffffffffffffffffffffffffffffffffff1673ffffffffffffffffffffffffffffffffffffffff16346040516119e7906128da565b60006040518083038185875af1925050503d8060008114611a24576040519150601f19603f3d011682016040523d82523d6000602084013e611a29565b606091505b509150915081611a6e576040517f08c379a0000000000000000000000000000000000000000000000000000000008152600401611a659061293b565b60405180910390fd5b3460076000828254611a809190612609565b925050819055507f948a46eba9469fc822b082631d32f2456ea94a35179d32230095b6f34fb341cb333460038681548110611abe57611abd61247a565b5b9060005260206000209060020201604051611adb93929190612bfa565b60405180910390a150505050565b611af16112c0565b611afa57600080fd5b611b0381611c38565b50565b611b9c81604051602401611b1a9190611ee0565b6040516020818303038152906040527f2c2ecbc2000000000000000000000000000000000000000000000000000000007bffffffffffffffffffffffffffffffffffffffffffffffffffffffff19166020820180517bffffffffffffffffffffffffffffffffffffffffffffffffffffffff8381831617835250505050611d32565b50565b611c3581604051602401611bb39190611e84565b6040516020818303038152906040527ff5b1bba9000000000000000000000000000000000000000000000000000000007bffffffffffffffffffffffffffffffffffffffffffffffffffffffff19166020820180517bffffffffffffffffffffffffffffffffffffffffffffffffffffffff8381831617835250505050611d32565b50565b600073ffffffffffffffffffffffffffffffffffffffff168173ffffffffffffffffffffffffffffffffffffffff161415611c7257600080fd5b8073ffffffffffffffffffffffffffffffffffffffff16600160009054906101000a900473ffffffffffffffffffffffffffffffffffffffff1673ffffffffffffffffffffffffffffffffffffffff167f8be0079c531659141344cd1fd0a4f28419497f9722a3daafe3b4186f6b6457e060405160405180910390a380600160006101000a81548173ffffffffffffffffffffffffffffffffffffffff021916908373ffffffffffffffffffffffffffffffffffffffff16021790555050565b60008151905060006a636f6e736f6c652e6c6f679050602083016000808483855afa5050505050565b828054611d67906126d7565b90600052602060002090601f016020900481019282611d895760008555611dd0565b82601f10611da257805160ff1916838001178555611dd0565b82800160010185558215611dd0579182015b82811115611dcf578251825591602001919060010190611db4565b5b509050611ddd9190611de1565b5090565b5b80821115611dfa576000816000905550600101611de2565b5090565b6000604051905090565b600080fd5b600080fd5b6000819050919050565b611e2581611e12565b8114611e3057600080fd5b50565b600081359050611e4281611e1c565b92915050565b600060208284031215611e5e57611e5d611e08565b5b6000611e6c84828501611e33565b91505092915050565b611e7e81611e12565b82525050565b6000602082019050611e996000830184611e75565b92915050565b600073ffffffffffffffffffffffffffffffffffffffff82169050919050565b6000611eca82611e9f565b9050919050565b611eda81611ebf565b82525050565b6000602082019050611ef56000830184611ed1565b92915050565b600080fd5b6000601f19601f8301169050919050565b7f4e487b7100000000000000000000000000000000000000000000000000000000600052604160045260246000fd5b611f4982611f00565b810181811067ffffffffffffffff82111715611f6857611f67611f11565b5b80604052505050565b6000611f7b611dfe565b9050611f878282611f40565b919050565b600067ffffffffffffffff821115611fa757611fa6611f11565b5b602082029050602081019050919050565b600080fd5b611fc681611ebf565b8114611fd157600080fd5b50565b600081359050611fe381611fbd565b92915050565b6000611ffc611ff784611f8c565b611f71565b9050808382526020820190506020840283018581111561201f5761201e611fb8565b5b835b8181101561204857806120348882611fd4565b845260208401935050602081019050612021565b5050509392505050565b600082601f83011261206757612066611efb565b5b8135612077848260208601611fe9565b91505092915050565b6000806040838503121561209757612096611e08565b5b600083013567ffffffffffffffff8111156120b5576120b4611e0d565b5b6120c185828601612052565b92505060206120d285828601611e33565b9150509250929050565b600081519050919050565b600082825260208201905092915050565b60005b838110156121165780820151818401526020810190506120fb565b83811115612125576000848401525b50505050565b6000612136826120dc565b61214081856120e7565b93506121508185602086016120f8565b61215981611f00565b840191505092915050565b600082825260208201905092915050565b6000612180826120dc565b61218a8185612164565b935061219a8185602086016120f8565b6121a381611f00565b840191505092915050565b6121b781611e12565b82525050565b600060408301600083015184820360008601526121da8282612175565b91505060208301516121ef60208601826121ae565b508091505092915050565b60006080820190508181036000830152612214818761212b565b90506122236020830186611ed1565b6122306040830185611e75565b818103606083015261224281846121bd565b905095945050505050565b60006020828403121561226357612262611e08565b5b600061227184828501611fd4565b91505092915050565b60006040820190508181036000830152612294818561212b565b90506122a36020830184611e75565b9392505050565b60008115159050919050565b6122bf816122aa565b82525050565b60006020820190506122da60008301846122b6565b92915050565b600080fd5b600067ffffffffffffffff821115612300576122ff611f11565b5b61230982611f00565b9050602081019050919050565b82818337600083830152505050565b6000612338612333846122e5565b611f71565b905082815260208101848484011115612354576123536122e0565b5b61235f848285612316565b509392505050565b600082601f83011261237c5761237b611efb565b5b813561238c848260208601612325565b91505092915050565b6000602082840312156123ab576123aa611e08565b5b600082013567ffffffffffffffff8111156123c9576123c8611e0d565b5b6123d584828501612367565b91505092915050565b600080604083850312156123f5576123f4611e08565b5b600061240385828601611fd4565b925050602061241485828601611e33565b9150509250929050565b6000806040838503121561243557612434611e08565b5b600083013567ffffffffffffffff81111561245357612452611e0d565b5b61245f85828601612367565b925050602061247085828601611e33565b9150509250929050565b7f4e487b7100000000000000000000000000000000000000000000000000000000600052603260045260246000fd5b7f4e487b7100000000000000000000000000000000000000000000000000000000600052601160045260246000fd5b60006124e382611e12565b91506124ee83611e12565b9250817fffffffffffffffffffffffffffffffffffffffffffffffffffffffffffffffff0483118215151615612527576125266124a9565b5b828202905092915050565b7f496e73756666696369656e742066756e64730000000000000000000000000000600082015250565b60006125686012836120e7565b915061257382612532565b602082019050919050565b600060208201905081810360008301526125978161255b565b9050919050565b60006060820190506125b36000830186611ed1565b6125c06020830185611ed1565b6125cd6040830184611e75565b949350505050565b60006125e082611e12565b91506125eb83611e12565b9250828210156125fe576125fd6124a9565b5b828203905092915050565b600061261482611e12565b915061261f83611e12565b9250827fffffffffffffffffffffffffffffffffffffffffffffffffffffffffffffffff03821115612654576126536124a9565b5b828201905092915050565b600061266a82611e12565b91507fffffffffffffffffffffffffffffffffffffffffffffffffffffffffffffffff82141561269d5761269c6124a9565b5b600182019050919050565b7f4e487b7100000000000000000000000000000000000000000000000000000000600052602260045260246000fd5b600060028204905060018216806126ef57607f821691505b60208210811415612703576127026126a8565b5b50919050565b600060408201905061271e6000830185611ed1565b61272b6020830184611e75565b9392505050565b600081905092915050565b7f7465616d31000000000000000000000000000000000000000000000000000000600082015250565b6000612773600583612732565b915061277e8261273d565b600582019050919050565b600061279482612766565b9150819050919050565b60008190508160005260206000209050919050565b600081546127c0816126d7565b6127ca8186612732565b945060018216600081146127e557600181146127f657612829565b60ff19831686528186019350612829565b6127ff8561279e565b60005b8381101561282157815481890152600182019150602081019050612802565b838801955050505b50505092915050565b600061283e82846127b3565b915081905092915050565b7f4e487b7100000000000000000000000000000000000000000000000000000000600052601260045260246000fd5b600061288382611e12565b915061288e83611e12565b92508261289e5761289d612849565b5b828204905092915050565b600081905092915050565b50565b60006128c46000836128a9565b91506128cf826128b4565b600082019050919050565b60006128e5826128b7565b9150819050919050565b7f4661696c656420746f2073656e64204574686572000000000000000000000000600082015250565b60006129256014836120e7565b9150612930826128ef565b602082019050919050565b6000602082019050818103600083015261295481612918565b9050919050565b7f7465616d32000000000000000000000000000000000000000000000000000000600082015250565b6000612991600583612732565b915061299c8261295b565b600582019050919050565b60006129b282612984565b9150819050919050565b7f6f776e65722063616e2774206d616b6520612062657400000000000000000000600082015250565b60006129f26016836120e7565b91506129fd826129bc565b602082019050919050565b60006020820190508181036000830152612a21816129e5565b9050919050565b7f796f75206861766520616c726561647920706c61636564206120626574000000600082015250565b6000612a5e601d836120e7565b9150612a6982612a28565b602082019050919050565b60006020820190508181036000830152612a8d81612a51565b9050919050565b7f626574206d6f7265000000000000000000000000000000000000000000000000600082015250565b6000612aca6008836120e7565b9150612ad582612a94565b602082019050919050565b60006020820190508181036000830152612af981612abd565b9050919050565b60008154612b0d816126d7565b612b178186612164565b94506001821660008114612b325760018114612b4457612b77565b60ff1983168652602086019350612b77565b612b4d8561279e565b60005b83811015612b6f57815481890152600182019150602081019050612b50565b808801955050505b50505092915050565b60008160001c9050919050565b6000819050919050565b6000612baa612ba583612b80565b612b8d565b9050919050565b60006040830160008084018583036000870152612bce8382612b00565b92505060018401549050612be181612b97565b612bee60208701826121ae565b50819250505092915050565b6000606082019050612c0f6000830186611ed1565b612c1c6020830185611e75565b8181036040830152612c2e8184612bb1565b905094935050505056fea26469706673582212208826d6e1c4075a6385bae5d5b0b9687275b2a41e772d2db85c5ef2341eda805b64736f6c634300080b0033",
  "immutableReferences": {},
  "source": "pragma solidity 0.8.11;\r\n\r\nimport \"./ownable.sol\";\r\nimport \"./ATM.sol\";\r\nimport \"./console.sol\";\r\n// import \"./sendEther.sol\";\r\n// import \"./safemath.sol\";\r\n\r\ncontract bet is ATM, Ownable {\r\n\r\n    // using SafeMath for uint256;\r\n\r\n    event NewBet(\r\n        address addy, \r\n        uint amount, \r\n        Team teamBet\r\n    );\r\n\r\n    struct Bet {\r\n        string name;\r\n        address addy;\r\n        uint amount;\r\n        Team teamBet;\r\n    }\r\n\r\n    struct Team {\r\n        string name;\r\n        uint totalBetAmount;\r\n    }\r\n\r\n    Bet[] public bets;\r\n    Team[] public teams;\r\n    \r\n    address public owna;\r\n    address payable conOwner;\r\n    uint public ownerBalance;\r\n    uint public totalBetMoney = 0;\r\n\r\n    constructor() payable {\r\n        conOwner = payable(msg.sender); // setting the contract creator\r\n        owna = msg.sender;\r\n        ownerBalance = msg.sender.balance;\r\n        teams.push(Team(\"team1\", 0));\r\n        teams.push(Team(\"team2\", 0));\r\n\r\n    }\r\n\r\n    mapping (address => uint) public numBetsAddress; //made to ensure person can only bet once\r\n\r\n    function getOwner() public view returns (address) {\r\n        return conOwner;\r\n    }\r\n\r\n    function getOriginalBal() public view returns (uint256) {\r\n        return conOwner.balance;\r\n    }\r\n\r\n    function createTeam (string memory _name) public {\r\n        teams.push(Team(_name, 0));\r\n    }\r\n\r\n    function getTotalBetAmount (uint _teamId) public view returns (uint) {\r\n        return teams[_teamId].totalBetAmount;\r\n    }\r\n    \r\n    function createBet (string memory _name, uint _teamId) external payable {       \r\n        require (msg.sender != conOwner, \"owner can't make a bet\");\r\n        require (numBetsAddress[msg.sender] == 0, \"you have already placed a bet\");\r\n        require (msg.value > 0.01 ether, \"bet more\");\r\n\r\n        deposit();\r\n\r\n        bets.push(Bet(_name, msg.sender, msg.value, teams[_teamId]));\r\n\r\n        if (_teamId == 0) {\r\n            teams[0].totalBetAmount += msg.value;\r\n        } \r\n        if (_teamId == 1) {\r\n            teams[1].totalBetAmount += msg.value;\r\n        }\r\n\r\n        numBetsAddress[msg.sender]++;\r\n        \r\n        (bool sent, bytes memory data) = conOwner.call{value: msg.value}(\"\");\r\n        require(sent, \"Failed to send Ether\");\r\n\r\n        totalBetMoney += msg.value;\r\n\r\n        emit NewBet(msg.sender, msg.value, teams[_teamId]);\r\n\r\n    }\r\n\r\n    function teamWinDistribution(uint _teamId) external payable onlyOwner() {\r\n        \r\n        deposit();\r\n        uint div;\r\n                \r\n        if (_teamId == 0) {\r\n            for (uint i = 0; i < bets.length; i++) {\r\n                if (keccak256(abi.encodePacked((bets[i].teamBet.name))) == keccak256(abi.encodePacked(\"team1\"))) {\r\n                    address payable receiver = payable(bets[i].addy);\r\n                    console.log(receiver);\r\n                    div = (bets[i].amount * (10000 + (teams[1].totalBetAmount * 10000 / teams[0].totalBetAmount))) / 10000;\r\n\r\n                    (bool sent, bytes memory data) = receiver.call{ value: div - 200000000000000000 }(\"\");\r\n                    require(sent, \"Failed to send Ether\");\r\n                    \r\n                }\r\n            }\r\n        } else {\r\n            for (uint i = 0; i < bets.length; i++) {\r\n                if (keccak256(abi.encodePacked((bets[i].teamBet.name))) == keccak256(abi.encodePacked(\"team2\"))) {\r\n                    address payable receiver = payable(bets[i].addy);\r\n                    div = (bets[i].amount * (10000 + (teams[0].totalBetAmount * 10000 / teams[1].totalBetAmount))) / 10000;\r\n                    console.log(getTotalBetAmount(0));\r\n                    console.log(div);\r\n\r\n                    (bool sent, bytes memory data) = receiver.call{ value: div - 200000000000000000 }(\"\");\r\n                    require(sent, \"Failed to send Ether\");\r\n                }\r\n            }\r\n        }\r\n\r\n        totalBetMoney = 0;\r\n        teams[0].totalBetAmount = 0;\r\n        teams[1].totalBetAmount = 0;\r\n\r\n        for (uint i = 0; i < bets.length; i++) {\r\n            numBetsAddress[bets[i].addy] = 0;\r\n        }\r\n\r\n    }\r\n\r\n\r\n}",
  "sourcePath": "C:\\Users\\coolf\\Desktop\\betFrontEnd\\src\\contracts\\bet.sol",
  "compiler": {
    "name": "solc",
    "version": "0.8.11+commit.d7f03943.Emscripten.clang"
  },
  "schemaVersion": "3.4.4",
  "updatedAt": "2022-01-04T06:00:59.295Z",
  "networkType": "ethereum",
  "devdoc": {
    "kind": "dev",
    "methods": {
      "isOwner()": {
        "returns": {
          "_0": "true if `msg.sender` is the owner of the contract."
        }
      },
      "owner()": {
        "returns": {
          "_0": "the address of the owner."
        }
      },
      "renounceOwnership()": {
        "details": "Allows the current owner to relinquish control of the contract."
      },
      "transferOwnership(address)": {
        "details": "Allows the current owner to transfer control of the contract to a newOwner.",
        "params": {
          "newOwner": "The address to transfer ownership to."
        }
      }
    },
    "version": 1
  },
  "userdoc": {
    "kind": "user",
    "methods": {
      "renounceOwnership()": {
        "notice": "Renouncing to ownership will leave the contract without an owner. It will not be possible to call the functions with the `onlyOwner` modifier anymore."
      }
    },
    "version": 1
  }
}